{
  "_format": "hh-sol-artifact-1",
  "contractName": "MyEpicNFT",
  "sourceName": "contracts/MyEpicNFT.sol",
  "abi": [
    {
      "inputs": [],
      "stateMutability": "nonpayable",
      "type": "constructor"
    },
    {
      "anonymous": false,
      "inputs": [
        {
          "indexed": true,
          "internalType": "address",
          "name": "owner",
          "type": "address"
        },
        {
          "indexed": true,
          "internalType": "address",
          "name": "approved",
          "type": "address"
        },
        {
          "indexed": true,
          "internalType": "uint256",
          "name": "tokenId",
          "type": "uint256"
        }
      ],
      "name": "Approval",
      "type": "event"
    },
    {
      "anonymous": false,
      "inputs": [
        {
          "indexed": true,
          "internalType": "address",
          "name": "owner",
          "type": "address"
        },
        {
          "indexed": true,
          "internalType": "address",
          "name": "operator",
          "type": "address"
        },
        {
          "indexed": false,
          "internalType": "bool",
          "name": "approved",
          "type": "bool"
        }
      ],
      "name": "ApprovalForAll",
      "type": "event"
    },
    {
      "anonymous": false,
      "inputs": [
        {
          "indexed": false,
          "internalType": "address",
          "name": "sender",
          "type": "address"
        },
        {
          "indexed": false,
          "internalType": "uint256",
          "name": "tokenId",
          "type": "uint256"
        }
      ],
      "name": "NewEpicNFTMinted",
      "type": "event"
    },
    {
      "anonymous": false,
      "inputs": [
        {
          "indexed": true,
          "internalType": "address",
          "name": "from",
          "type": "address"
        },
        {
          "indexed": true,
          "internalType": "address",
          "name": "to",
          "type": "address"
        },
        {
          "indexed": true,
          "internalType": "uint256",
          "name": "tokenId",
          "type": "uint256"
        }
      ],
      "name": "Transfer",
      "type": "event"
    },
    {
      "inputs": [
        {
          "internalType": "address",
          "name": "to",
          "type": "address"
        },
        {
          "internalType": "uint256",
          "name": "tokenId",
          "type": "uint256"
        }
      ],
      "name": "approve",
      "outputs": [],
      "stateMutability": "nonpayable",
      "type": "function"
    },
    {
      "inputs": [
        {
          "internalType": "address",
          "name": "owner",
          "type": "address"
        }
      ],
      "name": "balanceOf",
      "outputs": [
        {
          "internalType": "uint256",
          "name": "",
          "type": "uint256"
        }
      ],
      "stateMutability": "view",
      "type": "function"
    },
    {
      "inputs": [
        {
          "internalType": "uint256",
          "name": "tokenId",
          "type": "uint256"
        }
      ],
      "name": "getApproved",
      "outputs": [
        {
          "internalType": "address",
          "name": "",
          "type": "address"
        }
      ],
      "stateMutability": "view",
      "type": "function"
    },
    {
      "inputs": [
        {
          "internalType": "address",
          "name": "owner",
          "type": "address"
        },
        {
          "internalType": "address",
          "name": "operator",
          "type": "address"
        }
      ],
      "name": "isApprovedForAll",
      "outputs": [
        {
          "internalType": "bool",
          "name": "",
          "type": "bool"
        }
      ],
      "stateMutability": "view",
      "type": "function"
    },
    {
      "inputs": [],
      "name": "makeAnEpicNFT",
      "outputs": [],
      "stateMutability": "nonpayable",
      "type": "function"
    },
    {
      "inputs": [],
      "name": "name",
      "outputs": [
        {
          "internalType": "string",
          "name": "",
          "type": "string"
        }
      ],
      "stateMutability": "view",
      "type": "function"
    },
    {
      "inputs": [
        {
          "internalType": "uint256",
          "name": "tokenId",
          "type": "uint256"
        }
      ],
      "name": "ownerOf",
      "outputs": [
        {
          "internalType": "address",
          "name": "",
          "type": "address"
        }
      ],
      "stateMutability": "view",
      "type": "function"
    },
    {
      "inputs": [
        {
          "internalType": "address",
          "name": "from",
          "type": "address"
        },
        {
          "internalType": "address",
          "name": "to",
          "type": "address"
        },
        {
          "internalType": "uint256",
          "name": "tokenId",
          "type": "uint256"
        }
      ],
      "name": "safeTransferFrom",
      "outputs": [],
      "stateMutability": "nonpayable",
      "type": "function"
    },
    {
      "inputs": [
        {
          "internalType": "address",
          "name": "from",
          "type": "address"
        },
        {
          "internalType": "address",
          "name": "to",
          "type": "address"
        },
        {
          "internalType": "uint256",
          "name": "tokenId",
          "type": "uint256"
        },
        {
          "internalType": "bytes",
          "name": "data",
          "type": "bytes"
        }
      ],
      "name": "safeTransferFrom",
      "outputs": [],
      "stateMutability": "nonpayable",
      "type": "function"
    },
    {
      "inputs": [
        {
          "internalType": "address",
          "name": "operator",
          "type": "address"
        },
        {
          "internalType": "bool",
          "name": "approved",
          "type": "bool"
        }
      ],
      "name": "setApprovalForAll",
      "outputs": [],
      "stateMutability": "nonpayable",
      "type": "function"
    },
    {
      "inputs": [
        {
          "internalType": "bytes4",
          "name": "interfaceId",
          "type": "bytes4"
        }
      ],
      "name": "supportsInterface",
      "outputs": [
        {
          "internalType": "bool",
          "name": "",
          "type": "bool"
        }
      ],
      "stateMutability": "view",
      "type": "function"
    },
    {
      "inputs": [],
      "name": "symbol",
      "outputs": [
        {
          "internalType": "string",
          "name": "",
          "type": "string"
        }
      ],
      "stateMutability": "view",
      "type": "function"
    },
    {
      "inputs": [
        {
          "internalType": "uint256",
          "name": "tokenId",
          "type": "uint256"
        }
      ],
      "name": "tokenURI",
      "outputs": [
        {
          "internalType": "string",
          "name": "",
          "type": "string"
        }
      ],
      "stateMutability": "view",
      "type": "function"
    },
    {
      "inputs": [
        {
          "internalType": "address",
          "name": "from",
          "type": "address"
        },
        {
          "internalType": "address",
          "name": "to",
          "type": "address"
        },
        {
          "internalType": "uint256",
          "name": "tokenId",
          "type": "uint256"
        }
      ],
      "name": "transferFrom",
      "outputs": [],
      "stateMutability": "nonpayable",
      "type": "function"
    }
  ],
  "bytecode": "0x60806040523480156200001157600080fd5b506040518060400160405280600a81526020017f4f6b746f7075734e4654000000000000000000000000000000000000000000008152506040518060400160405280600481526020017f4f4b544f00000000000000000000000000000000000000000000000000000000815250816000908051906020019062000096929190620001b3565b508060019080519060200190620000af929190620001b3565b505050620000e16040518060600160405280602a815260200162002e13602a9139620000e760201b62000b0e1760201c565b62000390565b6200018781604051602401620000fe919062000307565b6040516020818303038152906040527f41304fac000000000000000000000000000000000000000000000000000000007bffffffffffffffffffffffffffffffffffffffffffffffffffffffff19166020820180517bffffffffffffffffffffffffffffffffffffffffffffffffffffffff83818316178352505050506200018a60201b60201c565b50565b60008151905060006a636f6e736f6c652e6c6f679050602083016000808483855afa5050505050565b828054620001c1906200035a565b90600052602060002090601f016020900481019282620001e5576000855562000231565b82601f106200020057805160ff191683800117855562000231565b8280016001018555821562000231579182015b828111156200023057825182559160200191906001019062000213565b5b50905062000240919062000244565b5090565b5b808211156200025f57600081600090555060010162000245565b5090565b600081519050919050565b600082825260208201905092915050565b60005b838110156200029f57808201518184015260208101905062000282565b83811115620002af576000848401525b50505050565b6000601f19601f8301169050919050565b6000620002d38262000263565b620002df81856200026e565b9350620002f18185602086016200027f565b620002fc81620002b5565b840191505092915050565b60006020820190508181036000830152620003238184620002c6565b905092915050565b7f4e487b7100000000000000000000000000000000000000000000000000000000600052602260045260246000fd5b600060028204905060018216806200037357607f821691505b602082108114156200038a57620003896200032b565b5b50919050565b612a7380620003a06000396000f3fe608060405234801561001057600080fd5b50600436106100ea5760003560e01c806370a082311161008c578063b88d4fde11610066578063b88d4fde1461025b578063c87b56dd14610277578063de9d132f146102a7578063e985e9c5146102b1576100ea565b806370a08231146101f157806395d89b4114610221578063a22cb4651461023f576100ea565b8063095ea7b3116100c8578063095ea7b31461016d57806323b872dd1461018957806342842e0e146101a55780636352211e146101c1576100ea565b806301ffc9a7146100ef57806306fdde031461011f578063081812fc1461013d575b600080fd5b61010960048036038101906101049190611ab4565b6102e1565b6040516101169190611afc565b60405180910390f35b6101276103c3565b6040516101349190611bb0565b60405180910390f35b61015760048036038101906101529190611c08565b610455565b6040516101649190611c76565b60405180910390f35b61018760048036038101906101829190611cbd565b61049b565b005b6101a3600480360381019061019e9190611cfd565b6105b3565b005b6101bf60048036038101906101ba9190611cfd565b610613565b005b6101db60048036038101906101d69190611c08565b610633565b6040516101e89190611c76565b60405180910390f35b61020b60048036038101906102069190611d50565b6106e5565b6040516102189190611d8c565b60405180910390f35b61022961079d565b6040516102369190611bb0565b60405180910390f35b61025960048036038101906102549190611dd3565b61082f565b005b61027560048036038101906102709190611f48565b610845565b005b610291600480360381019061028c9190611c08565b6108a7565b60405161029e9190611bb0565b60405180910390f35b6102af6109ba565b005b6102cb60048036038101906102c69190611fcb565b610a7a565b6040516102d89190611afc565b60405180910390f35b60007f80ac58cd000000000000000000000000000000000000000000000000000000007bffffffffffffffffffffffffffffffffffffffffffffffffffffffff1916827bffffffffffffffffffffffffffffffffffffffffffffffffffffffff191614806103ac57507f5b5e139f000000000000000000000000000000000000000000000000000000007bffffffffffffffffffffffffffffffffffffffffffffffffffffffff1916827bffffffffffffffffffffffffffffffffffffffffffffffffffffffff1916145b806103bc57506103bb82610ba7565b5b9050919050565b6060600080546103d29061203a565b80601f01602080910402602001604051908101604052809291908181526020018280546103fe9061203a565b801561044b5780601f106104205761010080835404028352916020019161044b565b820191906000526020600020905b81548152906001019060200180831161042e57829003601f168201915b5050505050905090565b600061046082610c11565b6004600083815260200190815260200160002060009054906101000a900473ffffffffffffffffffffffffffffffffffffffff169050919050565b60006104a682610633565b90508073ffffffffffffffffffffffffffffffffffffffff168373ffffffffffffffffffffffffffffffffffffffff161415610517576040517f08c379a000000000000000000000000000000000000000000000000000000000815260040161050e906120de565b60405180910390fd5b8073ffffffffffffffffffffffffffffffffffffffff16610536610c5c565b73ffffffffffffffffffffffffffffffffffffffff16148061056557506105648161055f610c5c565b610a7a565b5b6105a4576040517f08c379a000000000000000000000000000000000000000000000000000000000815260040161059b90612170565b60405180910390fd5b6105ae8383610c64565b505050565b6105c46105be610c5c565b82610d1d565b610603576040517f08c379a00000000000000000000000000000000000000000000000000000000081526004016105fa90612202565b60405180910390fd5b61060e838383610db2565b505050565b61062e83838360405180602001604052806000815250610845565b505050565b6000806002600084815260200190815260200160002060009054906101000a900473ffffffffffffffffffffffffffffffffffffffff169050600073ffffffffffffffffffffffffffffffffffffffff168173ffffffffffffffffffffffffffffffffffffffff1614156106dc576040517f08c379a00000000000000000000000000000000000000000000000000000000081526004016106d39061226e565b60405180910390fd5b80915050919050565b60008073ffffffffffffffffffffffffffffffffffffffff168273ffffffffffffffffffffffffffffffffffffffff161415610756576040517f08c379a000000000000000000000000000000000000000000000000000000000815260040161074d90612300565b60405180910390fd5b600360008373ffffffffffffffffffffffffffffffffffffffff1673ffffffffffffffffffffffffffffffffffffffff168152602001908152602001600020549050919050565b6060600180546107ac9061203a565b80601f01602080910402602001604051908101604052809291908181526020018280546107d89061203a565b80156108255780601f106107fa57610100808354040283529160200191610825565b820191906000526020600020905b81548152906001019060200180831161080857829003601f168201915b5050505050905090565b61084161083a610c5c565b8383611019565b5050565b610856610850610c5c565b83610d1d565b610895576040517f08c379a000000000000000000000000000000000000000000000000000000000815260040161088c90612202565b60405180910390fd5b6108a184848484611186565b50505050565b60606108b282610c11565b60006006600084815260200190815260200160002080546108d29061203a565b80601f01602080910402602001604051908101604052809291908181526020018280546108fe9061203a565b801561094b5780601f106109205761010080835404028352916020019161094b565b820191906000526020600020905b81548152906001019060200180831161092e57829003601f168201915b50505050509050600061095c6111e2565b90506000815114156109725781925050506109b5565b6000825111156109a757808260405160200161098f92919061235c565b604051602081830303815290604052925050506109b5565b6109b0846111f9565b925050505b919050565b60006109c66007611261565b90506109d2338261126f565b610a11816040518060400160405280601d81526020017f68747470733a2f2f6a736f6e6b65657065722e636f6d2f622f47464c5600000081525061128d565b610a34604051806060016040528060258152602001612a19602591398233611301565b610a3e60076113a0565b7febb98688741ffa4c7589bf325de30cf7becb63de567842e1ccdb6cb949fdc82c3382604051610a6f929190612380565b60405180910390a150565b6000600560008473ffffffffffffffffffffffffffffffffffffffff1673ffffffffffffffffffffffffffffffffffffffff16815260200190815260200160002060008373ffffffffffffffffffffffffffffffffffffffff1673ffffffffffffffffffffffffffffffffffffffff16815260200190815260200160002060009054906101000a900460ff16905092915050565b610ba481604051602401610b229190611bb0565b6040516020818303038152906040527f41304fac000000000000000000000000000000000000000000000000000000007bffffffffffffffffffffffffffffffffffffffffffffffffffffffff19166020820180517bffffffffffffffffffffffffffffffffffffffffffffffffffffffff83818316178352505050506113b6565b50565b60007f01ffc9a7000000000000000000000000000000000000000000000000000000007bffffffffffffffffffffffffffffffffffffffffffffffffffffffff1916827bffffffffffffffffffffffffffffffffffffffffffffffffffffffff1916149050919050565b610c1a816113df565b610c59576040517f08c379a0000000000000000000000000000000000000000000000000000000008152600401610c509061226e565b60405180910390fd5b50565b600033905090565b816004600083815260200190815260200160002060006101000a81548173ffffffffffffffffffffffffffffffffffffffff021916908373ffffffffffffffffffffffffffffffffffffffff160217905550808273ffffffffffffffffffffffffffffffffffffffff16610cd783610633565b73ffffffffffffffffffffffffffffffffffffffff167f8c5be1e5ebec7d5bd14f71427d1e84f3dd0314c0f7b2291e5b200ac8c7c3b92560405160405180910390a45050565b600080610d2983610633565b90508073ffffffffffffffffffffffffffffffffffffffff168473ffffffffffffffffffffffffffffffffffffffff161480610d6b5750610d6a8185610a7a565b5b80610da957508373ffffffffffffffffffffffffffffffffffffffff16610d9184610455565b73ffffffffffffffffffffffffffffffffffffffff16145b91505092915050565b8273ffffffffffffffffffffffffffffffffffffffff16610dd282610633565b73ffffffffffffffffffffffffffffffffffffffff1614610e28576040517f08c379a0000000000000000000000000000000000000000000000000000000008152600401610e1f9061241b565b60405180910390fd5b600073ffffffffffffffffffffffffffffffffffffffff168273ffffffffffffffffffffffffffffffffffffffff161415610e98576040517f08c379a0000000000000000000000000000000000000000000000000000000008152600401610e8f906124ad565b60405180910390fd5b610ea383838361144b565b610eae600082610c64565b6001600360008573ffffffffffffffffffffffffffffffffffffffff1673ffffffffffffffffffffffffffffffffffffffff1681526020019081526020016000206000828254610efe91906124fc565b925050819055506001600360008473ffffffffffffffffffffffffffffffffffffffff1673ffffffffffffffffffffffffffffffffffffffff1681526020019081526020016000206000828254610f559190612530565b92505081905550816002600083815260200190815260200160002060006101000a81548173ffffffffffffffffffffffffffffffffffffffff021916908373ffffffffffffffffffffffffffffffffffffffff160217905550808273ffffffffffffffffffffffffffffffffffffffff168473ffffffffffffffffffffffffffffffffffffffff167fddf252ad1be2c89b69c2b068fc378daa952ba7f163c4a11628f55a4df523b3ef60405160405180910390a4611014838383611450565b505050565b8173ffffffffffffffffffffffffffffffffffffffff168373ffffffffffffffffffffffffffffffffffffffff161415611088576040517f08c379a000000000000000000000000000000000000000000000000000000000815260040161107f906125d2565b60405180910390fd5b80600560008573ffffffffffffffffffffffffffffffffffffffff1673ffffffffffffffffffffffffffffffffffffffff16815260200190815260200160002060008473ffffffffffffffffffffffffffffffffffffffff1673ffffffffffffffffffffffffffffffffffffffff16815260200190815260200160002060006101000a81548160ff0219169083151502179055508173ffffffffffffffffffffffffffffffffffffffff168373ffffffffffffffffffffffffffffffffffffffff167f17307eab39ab6107e8899845ad3d59bd9653f200f220920489ca2b5937696c31836040516111799190611afc565b60405180910390a3505050565b611191848484610db2565b61119d84848484611455565b6111dc576040517f08c379a00000000000000000000000000000000000000000000000000000000081526004016111d390612664565b60405180910390fd5b50505050565b606060405180602001604052806000815250905090565b606061120482610c11565b600061120e6111e2565b9050600081511161122e5760405180602001604052806000815250611259565b80611238846115ec565b60405160200161124992919061235c565b6040516020818303038152906040525b915050919050565b600081600001549050919050565b61128982826040518060200160405280600081525061174d565b5050565b611296826113df565b6112d5576040517f08c379a00000000000000000000000000000000000000000000000000000000081526004016112cc906126f6565b60405180910390fd5b806006600084815260200190815260200160002090805190602001906112fc9291906119a5565b505050565b61139b83838360405160240161131993929190612716565b6040516020818303038152906040527f1c7ec448000000000000000000000000000000000000000000000000000000007bffffffffffffffffffffffffffffffffffffffffffffffffffffffff19166020820180517bffffffffffffffffffffffffffffffffffffffffffffffffffffffff83818316178352505050506113b6565b505050565b6001816000016000828254019250508190555050565b60008151905060006a636f6e736f6c652e6c6f679050602083016000808483855afa5050505050565b60008073ffffffffffffffffffffffffffffffffffffffff166002600084815260200190815260200160002060009054906101000a900473ffffffffffffffffffffffffffffffffffffffff1673ffffffffffffffffffffffffffffffffffffffff1614159050919050565b505050565b505050565b60006114768473ffffffffffffffffffffffffffffffffffffffff166117a8565b156115df578373ffffffffffffffffffffffffffffffffffffffff1663150b7a0261149f610c5c565b8786866040518563ffffffff1660e01b81526004016114c194939291906127a9565b602060405180830381600087803b1580156114db57600080fd5b505af192505050801561150c57506040513d601f19601f82011682018060405250810190611509919061280a565b60015b61158f573d806000811461153c576040519150601f19603f3d011682016040523d82523d6000602084013e611541565b606091505b50600081511415611587576040517f08c379a000000000000000000000000000000000000000000000000000000000815260040161157e90612664565b60405180910390fd5b805181602001fd5b63150b7a0260e01b7bffffffffffffffffffffffffffffffffffffffffffffffffffffffff1916817bffffffffffffffffffffffffffffffffffffffffffffffffffffffff1916149150506115e4565b600190505b949350505050565b60606000821415611634576040518060400160405280600181526020017f30000000000000000000000000000000000000000000000000000000000000008152509050611748565b600082905060005b6000821461166657808061164f90612837565b915050600a8261165f91906128af565b915061163c565b60008167ffffffffffffffff81111561168257611681611e1d565b5b6040519080825280601f01601f1916602001820160405280156116b45781602001600182028036833780820191505090505b5090505b60008514611741576001826116cd91906124fc565b9150600a856116dc91906128e0565b60306116e89190612530565b60f81b8183815181106116fe576116fd612911565b5b60200101907effffffffffffffffffffffffffffffffffffffffffffffffffffffffffffff1916908160001a905350600a8561173a91906128af565b94506116b8565b8093505050505b919050565b61175783836117cb565b6117646000848484611455565b6117a3576040517f08c379a000000000000000000000000000000000000000000000000000000000815260040161179a90612664565b60405180910390fd5b505050565b6000808273ffffffffffffffffffffffffffffffffffffffff163b119050919050565b600073ffffffffffffffffffffffffffffffffffffffff168273ffffffffffffffffffffffffffffffffffffffff16141561183b576040517f08c379a00000000000000000000000000000000000000000000000000000000081526004016118329061298c565b60405180910390fd5b611844816113df565b15611884576040517f08c379a000000000000000000000000000000000000000000000000000000000815260040161187b906129f8565b60405180910390fd5b6118906000838361144b565b6001600360008473ffffffffffffffffffffffffffffffffffffffff1673ffffffffffffffffffffffffffffffffffffffff16815260200190815260200160002060008282546118e09190612530565b92505081905550816002600083815260200190815260200160002060006101000a81548173ffffffffffffffffffffffffffffffffffffffff021916908373ffffffffffffffffffffffffffffffffffffffff160217905550808273ffffffffffffffffffffffffffffffffffffffff16600073ffffffffffffffffffffffffffffffffffffffff167fddf252ad1be2c89b69c2b068fc378daa952ba7f163c4a11628f55a4df523b3ef60405160405180910390a46119a160008383611450565b5050565b8280546119b19061203a565b90600052602060002090601f0160209004810192826119d35760008555611a1a565b82601f106119ec57805160ff1916838001178555611a1a565b82800160010185558215611a1a579182015b82811115611a195782518255916020019190600101906119fe565b5b509050611a279190611a2b565b5090565b5b80821115611a44576000816000905550600101611a2c565b5090565b6000604051905090565b600080fd5b600080fd5b60007fffffffff0000000000000000000000000000000000000000000000000000000082169050919050565b611a9181611a5c565b8114611a9c57600080fd5b50565b600081359050611aae81611a88565b92915050565b600060208284031215611aca57611ac9611a52565b5b6000611ad884828501611a9f565b91505092915050565b60008115159050919050565b611af681611ae1565b82525050565b6000602082019050611b116000830184611aed565b92915050565b600081519050919050565b600082825260208201905092915050565b60005b83811015611b51578082015181840152602081019050611b36565b83811115611b60576000848401525b50505050565b6000601f19601f8301169050919050565b6000611b8282611b17565b611b8c8185611b22565b9350611b9c818560208601611b33565b611ba581611b66565b840191505092915050565b60006020820190508181036000830152611bca8184611b77565b905092915050565b6000819050919050565b611be581611bd2565b8114611bf057600080fd5b50565b600081359050611c0281611bdc565b92915050565b600060208284031215611c1e57611c1d611a52565b5b6000611c2c84828501611bf3565b91505092915050565b600073ffffffffffffffffffffffffffffffffffffffff82169050919050565b6000611c6082611c35565b9050919050565b611c7081611c55565b82525050565b6000602082019050611c8b6000830184611c67565b92915050565b611c9a81611c55565b8114611ca557600080fd5b50565b600081359050611cb781611c91565b92915050565b60008060408385031215611cd457611cd3611a52565b5b6000611ce285828601611ca8565b9250506020611cf385828601611bf3565b9150509250929050565b600080600060608486031215611d1657611d15611a52565b5b6000611d2486828701611ca8565b9350506020611d3586828701611ca8565b9250506040611d4686828701611bf3565b9150509250925092565b600060208284031215611d6657611d65611a52565b5b6000611d7484828501611ca8565b91505092915050565b611d8681611bd2565b82525050565b6000602082019050611da16000830184611d7d565b92915050565b611db081611ae1565b8114611dbb57600080fd5b50565b600081359050611dcd81611da7565b92915050565b60008060408385031215611dea57611de9611a52565b5b6000611df885828601611ca8565b9250506020611e0985828601611dbe565b9150509250929050565b600080fd5b600080fd5b7f4e487b7100000000000000000000000000000000000000000000000000000000600052604160045260246000fd5b611e5582611b66565b810181811067ffffffffffffffff82111715611e7457611e73611e1d565b5b80604052505050565b6000611e87611a48565b9050611e938282611e4c565b919050565b600067ffffffffffffffff821115611eb357611eb2611e1d565b5b611ebc82611b66565b9050602081019050919050565b82818337600083830152505050565b6000611eeb611ee684611e98565b611e7d565b905082815260208101848484011115611f0757611f06611e18565b5b611f12848285611ec9565b509392505050565b600082601f830112611f2f57611f2e611e13565b5b8135611f3f848260208601611ed8565b91505092915050565b60008060008060808587031215611f6257611f61611a52565b5b6000611f7087828801611ca8565b9450506020611f8187828801611ca8565b9350506040611f9287828801611bf3565b925050606085013567ffffffffffffffff811115611fb357611fb2611a57565b5b611fbf87828801611f1a565b91505092959194509250565b60008060408385031215611fe257611fe1611a52565b5b6000611ff085828601611ca8565b925050602061200185828601611ca8565b9150509250929050565b7f4e487b7100000000000000000000000000000000000000000000000000000000600052602260045260246000fd5b6000600282049050600182168061205257607f821691505b602082108114156120665761206561200b565b5b50919050565b7f4552433732313a20617070726f76616c20746f2063757272656e74206f776e6560008201527f7200000000000000000000000000000000000000000000000000000000000000602082015250565b60006120c8602183611b22565b91506120d38261206c565b604082019050919050565b600060208201905081810360008301526120f7816120bb565b9050919050565b7f4552433732313a20617070726f76652063616c6c6572206973206e6f7420746f60008201527f6b656e206f776e6572206e6f7220617070726f76656420666f7220616c6c0000602082015250565b600061215a603e83611b22565b9150612165826120fe565b604082019050919050565b600060208201905081810360008301526121898161214d565b9050919050565b7f4552433732313a2063616c6c6572206973206e6f7420746f6b656e206f776e6560008201527f72206e6f7220617070726f766564000000000000000000000000000000000000602082015250565b60006121ec602e83611b22565b91506121f782612190565b604082019050919050565b6000602082019050818103600083015261221b816121df565b9050919050565b7f4552433732313a20696e76616c696420746f6b656e2049440000000000000000600082015250565b6000612258601883611b22565b915061226382612222565b602082019050919050565b600060208201905081810360008301526122878161224b565b9050919050565b7f4552433732313a2061646472657373207a65726f206973206e6f74206120766160008201527f6c6964206f776e65720000000000000000000000000000000000000000000000602082015250565b60006122ea602983611b22565b91506122f58261228e565b604082019050919050565b60006020820190508181036000830152612319816122dd565b9050919050565b600081905092915050565b600061233682611b17565b6123408185612320565b9350612350818560208601611b33565b80840191505092915050565b6000612368828561232b565b9150612374828461232b565b91508190509392505050565b60006040820190506123956000830185611c67565b6123a26020830184611d7d565b9392505050565b7f4552433732313a207472616e736665722066726f6d20696e636f72726563742060008201527f6f776e6572000000000000000000000000000000000000000000000000000000602082015250565b6000612405602583611b22565b9150612410826123a9565b604082019050919050565b60006020820190508181036000830152612434816123f8565b9050919050565b7f4552433732313a207472616e7366657220746f20746865207a65726f2061646460008201527f7265737300000000000000000000000000000000000000000000000000000000602082015250565b6000612497602483611b22565b91506124a28261243b565b604082019050919050565b600060208201905081810360008301526124c68161248a565b9050919050565b7f4e487b7100000000000000000000000000000000000000000000000000000000600052601160045260246000fd5b600061250782611bd2565b915061251283611bd2565b925082821015612525576125246124cd565b5b828203905092915050565b600061253b82611bd2565b915061254683611bd2565b9250827fffffffffffffffffffffffffffffffffffffffffffffffffffffffffffffffff0382111561257b5761257a6124cd565b5b828201905092915050565b7f4552433732313a20617070726f766520746f2063616c6c657200000000000000600082015250565b60006125bc601983611b22565b91506125c782612586565b602082019050919050565b600060208201905081810360008301526125eb816125af565b9050919050565b7f4552433732313a207472616e7366657220746f206e6f6e20455243373231526560008201527f63656976657220696d706c656d656e7465720000000000000000000000000000602082015250565b600061264e603283611b22565b9150612659826125f2565b604082019050919050565b6000602082019050818103600083015261267d81612641565b9050919050565b7f45524337323155524953746f726167653a2055524920736574206f66206e6f6e60008201527f6578697374656e7420746f6b656e000000000000000000000000000000000000602082015250565b60006126e0602e83611b22565b91506126eb82612684565b604082019050919050565b6000602082019050818103600083015261270f816126d3565b9050919050565b600060608201905081810360008301526127308186611b77565b905061273f6020830185611d7d565b61274c6040830184611c67565b949350505050565b600081519050919050565b600082825260208201905092915050565b600061277b82612754565b612785818561275f565b9350612795818560208601611b33565b61279e81611b66565b840191505092915050565b60006080820190506127be6000830187611c67565b6127cb6020830186611c67565b6127d86040830185611d7d565b81810360608301526127ea8184612770565b905095945050505050565b60008151905061280481611a88565b92915050565b6000602082840312156128205761281f611a52565b5b600061282e848285016127f5565b91505092915050565b600061284282611bd2565b91507fffffffffffffffffffffffffffffffffffffffffffffffffffffffffffffffff821415612875576128746124cd565b5b600182019050919050565b7f4e487b7100000000000000000000000000000000000000000000000000000000600052601260045260246000fd5b60006128ba82611bd2565b91506128c583611bd2565b9250826128d5576128d4612880565b5b828204905092915050565b60006128eb82611bd2565b91506128f683611bd2565b92508261290657612905612880565b5b828206905092915050565b7f4e487b7100000000000000000000000000000000000000000000000000000000600052603260045260246000fd5b7f4552433732313a206d696e7420746f20746865207a65726f2061646472657373600082015250565b6000612976602083611b22565b915061298182612940565b602082019050919050565b600060208201905081810360008301526129a581612969565b9050919050565b7f4552433732313a20746f6b656e20616c7265616479206d696e74656400000000600082015250565b60006129e2601c83611b22565b91506129ed826129ac565b602082019050919050565b60006020820190508181036000830152612a11816129d5565b905091905056fe416e204e465420772f20494420257320686173206265656e206d696e74656420746f202573a26469706673582212207106b08cd72a6715cafa83c0d16d2b6054568522c2429be6a1b63e15119789f664736f6c6343000809003354686973206973206d79204e465420636f6e747261637420666f72204f6b746f7075732e20576f616821",
  "linkReferences": {},
  "deployedLinkReferences": {}
}